{
  "_format": "hh-sol-artifact-1",
  "contractName": "CryptoPunkNFT",
  "sourceName": "contracts/CryptoPunkNFT.sol",
  "abi": [
    {
      "inputs": [
        {
          "internalType": "uint256",
          "name": "_maxSupply",
          "type": "uint256"
        },
        {
          "internalType": "string",
          "name": "_newBaseURI",
          "type": "string"
        }
      ],
      "stateMutability": "nonpayable",
      "type": "constructor"
    },
    {
      "anonymous": false,
      "inputs": [
        {
          "indexed": true,
          "internalType": "address",
          "name": "owner",
          "type": "address"
        },
        {
          "indexed": true,
          "internalType": "address",
          "name": "approved",
          "type": "address"
        },
        {
          "indexed": true,
          "internalType": "uint256",
          "name": "tokenId",
          "type": "uint256"
        }
      ],
      "name": "Approval",
      "type": "event"
    },
    {
      "anonymous": false,
      "inputs": [
        {
          "indexed": true,
          "internalType": "address",
          "name": "owner",
          "type": "address"
        },
        {
          "indexed": true,
          "internalType": "address",
          "name": "operator",
          "type": "address"
        },
        {
          "indexed": false,
          "internalType": "bool",
          "name": "approved",
          "type": "bool"
        }
      ],
      "name": "ApprovalForAll",
      "type": "event"
    },
    {
      "anonymous": false,
      "inputs": [
        {
          "indexed": false,
          "internalType": "address",
          "name": "sender",
          "type": "address"
        },
        {
          "indexed": false,
          "internalType": "uint256",
          "name": "tokenId",
          "type": "uint256"
        }
      ],
      "name": "NFTMinted",
      "type": "event"
    },
    {
      "anonymous": false,
      "inputs": [
        {
          "indexed": true,
          "internalType": "address",
          "name": "previousOwner",
          "type": "address"
        },
        {
          "indexed": true,
          "internalType": "address",
          "name": "newOwner",
          "type": "address"
        }
      ],
      "name": "OwnershipTransferred",
      "type": "event"
    },
    {
      "anonymous": false,
      "inputs": [
        {
          "indexed": true,
          "internalType": "address",
          "name": "from",
          "type": "address"
        },
        {
          "indexed": true,
          "internalType": "address",
          "name": "to",
          "type": "address"
        },
        {
          "indexed": true,
          "internalType": "uint256",
          "name": "tokenId",
          "type": "uint256"
        }
      ],
      "name": "Transfer",
      "type": "event"
    },
    {
      "inputs": [
        {
          "internalType": "address",
          "name": "to",
          "type": "address"
        },
        {
          "internalType": "uint256",
          "name": "tokenId",
          "type": "uint256"
        }
      ],
      "name": "approve",
      "outputs": [],
      "stateMutability": "nonpayable",
      "type": "function"
    },
    {
      "inputs": [
        {
          "internalType": "address",
          "name": "owner",
          "type": "address"
        }
      ],
      "name": "balanceOf",
      "outputs": [
        {
          "internalType": "uint256",
          "name": "",
          "type": "uint256"
        }
      ],
      "stateMutability": "view",
      "type": "function"
    },
    {
      "inputs": [],
      "name": "baseURI",
      "outputs": [
        {
          "internalType": "string",
          "name": "",
          "type": "string"
        }
      ],
      "stateMutability": "view",
      "type": "function"
    },
    {
      "inputs": [
        {
          "internalType": "uint256",
          "name": "tokenId",
          "type": "uint256"
        }
      ],
      "name": "getApproved",
      "outputs": [
        {
          "internalType": "address",
          "name": "",
          "type": "address"
        }
      ],
      "stateMutability": "view",
      "type": "function"
    },
    {
      "inputs": [
        {
          "internalType": "address",
          "name": "owner",
          "type": "address"
        },
        {
          "internalType": "address",
          "name": "operator",
          "type": "address"
        }
      ],
      "name": "isApprovedForAll",
      "outputs": [
        {
          "internalType": "bool",
          "name": "",
          "type": "bool"
        }
      ],
      "stateMutability": "view",
      "type": "function"
    },
    {
      "inputs": [],
      "name": "maxSupply",
      "outputs": [
        {
          "internalType": "uint256",
          "name": "",
          "type": "uint256"
        }
      ],
      "stateMutability": "view",
      "type": "function"
    },
    {
      "inputs": [
        {
          "internalType": "address",
          "name": "to",
          "type": "address"
        }
      ],
      "name": "mint",
      "outputs": [],
      "stateMutability": "nonpayable",
      "type": "function"
    },
    {
      "inputs": [],
      "name": "name",
      "outputs": [
        {
          "internalType": "string",
          "name": "",
          "type": "string"
        }
      ],
      "stateMutability": "view",
      "type": "function"
    },
    {
      "inputs": [],
      "name": "owner",
      "outputs": [
        {
          "internalType": "address",
          "name": "",
          "type": "address"
        }
      ],
      "stateMutability": "view",
      "type": "function"
    },
    {
      "inputs": [
        {
          "internalType": "uint256",
          "name": "tokenId",
          "type": "uint256"
        }
      ],
      "name": "ownerOf",
      "outputs": [
        {
          "internalType": "address",
          "name": "",
          "type": "address"
        }
      ],
      "stateMutability": "view",
      "type": "function"
    },
    {
      "inputs": [],
      "name": "renounceOwnership",
      "outputs": [],
      "stateMutability": "nonpayable",
      "type": "function"
    },
    {
      "inputs": [
        {
          "internalType": "address",
          "name": "from",
          "type": "address"
        },
        {
          "internalType": "address",
          "name": "to",
          "type": "address"
        },
        {
          "internalType": "uint256",
          "name": "tokenId",
          "type": "uint256"
        }
      ],
      "name": "safeTransferFrom",
      "outputs": [],
      "stateMutability": "nonpayable",
      "type": "function"
    },
    {
      "inputs": [
        {
          "internalType": "address",
          "name": "from",
          "type": "address"
        },
        {
          "internalType": "address",
          "name": "to",
          "type": "address"
        },
        {
          "internalType": "uint256",
          "name": "tokenId",
          "type": "uint256"
        },
        {
          "internalType": "bytes",
          "name": "_data",
          "type": "bytes"
        }
      ],
      "name": "safeTransferFrom",
      "outputs": [],
      "stateMutability": "nonpayable",
      "type": "function"
    },
    {
      "inputs": [
        {
          "internalType": "address",
          "name": "operator",
          "type": "address"
        },
        {
          "internalType": "bool",
          "name": "approved",
          "type": "bool"
        }
      ],
      "name": "setApprovalForAll",
      "outputs": [],
      "stateMutability": "nonpayable",
      "type": "function"
    },
    {
      "inputs": [
        {
          "internalType": "string",
          "name": "_newBaseURI",
          "type": "string"
        }
      ],
      "name": "setBaseURI",
      "outputs": [],
      "stateMutability": "nonpayable",
      "type": "function"
    },
    {
      "inputs": [
        {
          "internalType": "bytes4",
          "name": "interfaceId",
          "type": "bytes4"
        }
      ],
      "name": "supportsInterface",
      "outputs": [
        {
          "internalType": "bool",
          "name": "",
          "type": "bool"
        }
      ],
      "stateMutability": "view",
      "type": "function"
    },
    {
      "inputs": [],
      "name": "symbol",
      "outputs": [
        {
          "internalType": "string",
          "name": "",
          "type": "string"
        }
      ],
      "stateMutability": "view",
      "type": "function"
    },
    {
      "inputs": [
        {
          "internalType": "uint256",
          "name": "index",
          "type": "uint256"
        }
      ],
      "name": "tokenByIndex",
      "outputs": [
        {
          "internalType": "uint256",
          "name": "",
          "type": "uint256"
        }
      ],
      "stateMutability": "view",
      "type": "function"
    },
    {
      "inputs": [
        {
          "internalType": "address",
          "name": "owner",
          "type": "address"
        },
        {
          "internalType": "uint256",
          "name": "index",
          "type": "uint256"
        }
      ],
      "name": "tokenOfOwnerByIndex",
      "outputs": [
        {
          "internalType": "uint256",
          "name": "",
          "type": "uint256"
        }
      ],
      "stateMutability": "view",
      "type": "function"
    },
    {
      "inputs": [
        {
          "internalType": "uint256",
          "name": "tokenId",
          "type": "uint256"
        }
      ],
      "name": "tokenURI",
      "outputs": [
        {
          "internalType": "string",
          "name": "",
          "type": "string"
        }
      ],
      "stateMutability": "view",
      "type": "function"
    },
    {
      "inputs": [],
      "name": "totalMinted",
      "outputs": [
        {
          "internalType": "uint256",
          "name": "",
          "type": "uint256"
        }
      ],
      "stateMutability": "view",
      "type": "function"
    },
    {
      "inputs": [],
      "name": "totalSupply",
      "outputs": [
        {
          "internalType": "uint256",
          "name": "",
          "type": "uint256"
        }
      ],
      "stateMutability": "view",
      "type": "function"
    },
    {
      "inputs": [
        {
          "internalType": "address",
          "name": "from",
          "type": "address"
        },
        {
          "internalType": "address",
          "name": "to",
          "type": "address"
        },
        {
          "internalType": "uint256",
          "name": "tokenId",
          "type": "uint256"
        }
      ],
      "name": "transferFrom",
      "outputs": [],
      "stateMutability": "nonpayable",
      "type": "function"
    },
    {
      "inputs": [
        {
          "internalType": "address",
          "name": "newOwner",
          "type": "address"
        }
      ],
      "name": "transferOwnership",
      "outputs": [],
      "stateMutability": "nonpayable",
      "type": "function"
    }
  ],
  "bytecode": "0x60806040523480156200001157600080fd5b506040516200403c3803806200403c833981810160405281019062000037919062000353565b6040518060400160405280600b81526020017f43727970746f2050756e6b0000000000000000000000000000000000000000008152506040518060400160405280600481526020017f50554e4b000000000000000000000000000000000000000000000000000000008152508160009080519060200190620000bb9291906200021a565b508060019080519060200190620000d49291906200021a565b505050620000f7620000eb6200013660201b60201c565b6200013e60201b60201c565b6200010e600c6200020460201b62000f711760201c565b80600e9080519060200190620001269291906200021a565b5081600d81905550505062000541565b600033905090565b6000600b60009054906101000a900473ffffffffffffffffffffffffffffffffffffffff16905081600b60006101000a81548173ffffffffffffffffffffffffffffffffffffffff021916908373ffffffffffffffffffffffffffffffffffffffff1602179055508173ffffffffffffffffffffffffffffffffffffffff168173ffffffffffffffffffffffffffffffffffffffff167f8be0079c531659141344cd1fd0a4f28419497f9722a3daafe3b4186f6b6457e060405160405180910390a35050565b6001816000016000828254019250508190555050565b82805462000228906200044c565b90600052602060002090601f0160209004810192826200024c576000855562000298565b82601f106200026757805160ff191683800117855562000298565b8280016001018555821562000298579182015b82811115620002975782518255916020019190600101906200027a565b5b509050620002a79190620002ab565b5090565b5b80821115620002c6576000816000905550600101620002ac565b5090565b6000620002e1620002db84620003d6565b620003ad565b905082815260208101848484011115620002fa57600080fd5b6200030784828562000416565b509392505050565b600082601f8301126200032157600080fd5b815162000333848260208601620002ca565b91505092915050565b6000815190506200034d8162000527565b92915050565b600080604083850312156200036757600080fd5b600062000377858286016200033c565b925050602083015167ffffffffffffffff8111156200039557600080fd5b620003a3858286016200030f565b9150509250929050565b6000620003b9620003cc565b9050620003c7828262000482565b919050565b6000604051905090565b600067ffffffffffffffff821115620003f457620003f3620004e7565b5b620003ff8262000516565b9050602081019050919050565b6000819050919050565b60005b838110156200043657808201518184015260208101905062000419565b8381111562000446576000848401525b50505050565b600060028204905060018216806200046557607f821691505b602082108114156200047c576200047b620004b8565b5b50919050565b6200048d8262000516565b810181811067ffffffffffffffff82111715620004af57620004ae620004e7565b5b80604052505050565b7f4e487b7100000000000000000000000000000000000000000000000000000000600052602260045260246000fd5b7f4e487b7100000000000000000000000000000000000000000000000000000000600052604160045260246000fd5b6000601f19601f8301169050919050565b62000532816200040c565b81146200053e57600080fd5b50565b613aeb80620005516000396000f3fe608060405234801561001057600080fd5b50600436106101585760003560e01c80636c0360eb116100c3578063a2309ff81161007c578063a2309ff8146103c5578063b88d4fde146103e3578063c87b56dd146103ff578063d5abeb011461042f578063e985e9c51461044d578063f2fde38b1461047d57610158565b80636c0360eb1461031557806370a0823114610333578063715018a6146103635780638da5cb5b1461036d57806395d89b411461038b578063a22cb465146103a957610158565b80632f745c59116101155780632f745c591461023157806342842e0e146102615780634f6ccce71461027d57806355f804b3146102ad5780636352211e146102c95780636a627842146102f957610158565b806301ffc9a71461015d57806306fdde031461018d578063081812fc146101ab578063095ea7b3146101db57806318160ddd146101f757806323b872dd14610215575b600080fd5b6101776004803603810190610172919061289e565b610499565b6040516101849190612ddf565b60405180910390f35b6101956104ab565b6040516101a29190612dfa565b60405180910390f35b6101c560048036038101906101c09190612931565b61053d565b6040516101d29190612d4f565b60405180910390f35b6101f560048036038101906101f09190612862565b6105c2565b005b6101ff6106da565b60405161020c919061309c565b60405180910390f35b61022f600480360381019061022a919061275c565b6106e7565b005b61024b60048036038101906102469190612862565b610747565b604051610258919061309c565b60405180910390f35b61027b6004803603810190610276919061275c565b6107ec565b005b61029760048036038101906102929190612931565b61080c565b6040516102a4919061309c565b60405180910390f35b6102c760048036038101906102c291906128f0565b6108a3565b005b6102e360048036038101906102de9190612931565b610939565b6040516102f09190612d4f565b60405180910390f35b610313600480360381019061030e91906126f7565b6109eb565b005b61031d610a8f565b60405161032a9190612dfa565b60405180910390f35b61034d600480360381019061034891906126f7565b610b1d565b60405161035a919061309c565b60405180910390f35b61036b610bd5565b005b610375610c5d565b6040516103829190612d4f565b60405180910390f35b610393610c87565b6040516103a09190612dfa565b60405180910390f35b6103c360048036038101906103be9190612826565b610d19565b005b6103cd610d2f565b6040516103da919061309c565b60405180910390f35b6103fd60048036038101906103f891906127ab565b610d4c565b005b61041960048036038101906104149190612931565b610dae565b6040516104269190612dfa565b60405180910390f35b610437610ddf565b604051610444919061309c565b60405180910390f35b61046760048036038101906104629190612720565b610de5565b6040516104749190612ddf565b60405180910390f35b610497600480360381019061049291906126f7565b610e79565b005b60006104a482610f87565b9050919050565b6060600080546104ba906132f2565b80601f01602080910402602001604051908101604052809291908181526020018280546104e6906132f2565b80156105335780601f1061050857610100808354040283529160200191610533565b820191906000526020600020905b81548152906001019060200180831161051657829003601f168201915b5050505050905090565b600061054882611001565b610587576040517f08c379a000000000000000000000000000000000000000000000000000000000815260040161057e90612f9c565b60405180910390fd5b6004600083815260200190815260200160002060009054906101000a900473ffffffffffffffffffffffffffffffffffffffff169050919050565b60006105cd82610939565b90508073ffffffffffffffffffffffffffffffffffffffff168373ffffffffffffffffffffffffffffffffffffffff16141561063e576040517f08c379a00000000000000000000000000000000000000000000000000000000081526004016106359061301c565b60405180910390fd5b8073ffffffffffffffffffffffffffffffffffffffff1661065d61106d565b73ffffffffffffffffffffffffffffffffffffffff16148061068c575061068b8161068661106d565b610de5565b5b6106cb576040517f08c379a00000000000000000000000000000000000000000000000000000000081526004016106c290612efc565b60405180910390fd5b6106d58383611075565b505050565b6000600880549050905090565b6106f86106f261106d565b8261112e565b610737576040517f08c379a000000000000000000000000000000000000000000000000000000000815260040161072e9061303c565b60405180910390fd5b61074283838361120c565b505050565b600061075283610b1d565b8210610793576040517f08c379a000000000000000000000000000000000000000000000000000000000815260040161078a90612e1c565b60405180910390fd5b600660008473ffffffffffffffffffffffffffffffffffffffff1673ffffffffffffffffffffffffffffffffffffffff168152602001908152602001600020600083815260200190815260200160002054905092915050565b61080783838360405180602001604052806000815250610d4c565b505050565b60006108166106da565b8210610857576040517f08c379a000000000000000000000000000000000000000000000000000000000815260040161084e9061305c565b60405180910390fd5b60088281548110610891577f4e487b7100000000000000000000000000000000000000000000000000000000600052603260045260246000fd5b90600052602060002001549050919050565b6108ab61106d565b73ffffffffffffffffffffffffffffffffffffffff166108c9610c5d565b73ffffffffffffffffffffffffffffffffffffffff161461091f576040517f08c379a000000000000000000000000000000000000000000000000000000000815260040161091690612fbc565b60405180910390fd5b80600e908051906020019061093592919061251b565b5050565b6000806002600084815260200190815260200160002060009054906101000a900473ffffffffffffffffffffffffffffffffffffffff169050600073ffffffffffffffffffffffffffffffffffffffff168173ffffffffffffffffffffffffffffffffffffffff1614156109e2576040517f08c379a00000000000000000000000000000000000000000000000000000000081526004016109d990612f3c565b60405180910390fd5b80915050919050565b60006109f7600c611468565b9050600d54811115610a3e576040517f08c379a0000000000000000000000000000000000000000000000000000000008152600401610a359061307c565b60405180910390fd5b610a488282611476565b610a52600c610f71565b7f4cc0a9c4a99ddc700de1af2c9f916a7cbfdb71f14801ccff94061ad1ef8a80408282604051610a83929190612db6565b60405180910390a15050565b600e8054610a9c906132f2565b80601f0160208091040260200160405190810160405280929190818152602001828054610ac8906132f2565b8015610b155780601f10610aea57610100808354040283529160200191610b15565b820191906000526020600020905b815481529060010190602001808311610af857829003601f168201915b505050505081565b60008073ffffffffffffffffffffffffffffffffffffffff168273ffffffffffffffffffffffffffffffffffffffff161415610b8e576040517f08c379a0000000000000000000000000000000000000000000000000000000008152600401610b8590612f1c565b60405180910390fd5b600360008373ffffffffffffffffffffffffffffffffffffffff1673ffffffffffffffffffffffffffffffffffffffff168152602001908152602001600020549050919050565b610bdd61106d565b73ffffffffffffffffffffffffffffffffffffffff16610bfb610c5d565b73ffffffffffffffffffffffffffffffffffffffff1614610c51576040517f08c379a0000000000000000000000000000000000000000000000000000000008152600401610c4890612fbc565b60405180910390fd5b610c5b6000611494565b565b6000600b60009054906101000a900473ffffffffffffffffffffffffffffffffffffffff16905090565b606060018054610c96906132f2565b80601f0160208091040260200160405190810160405280929190818152602001828054610cc2906132f2565b8015610d0f5780601f10610ce457610100808354040283529160200191610d0f565b820191906000526020600020905b815481529060010190602001808311610cf257829003601f168201915b5050505050905090565b610d2b610d2461106d565b838361155a565b5050565b60006001610d3d600c611468565b610d479190613208565b905090565b610d5d610d5761106d565b8361112e565b610d9c576040517f08c379a0000000000000000000000000000000000000000000000000000000008152600401610d939061303c565b60405180910390fd5b610da8848484846116c7565b50505050565b6060610db982611723565b604051602001610dc99190612d2d565b6040516020818303038152906040529050919050565b600d5481565b6000600560008473ffffffffffffffffffffffffffffffffffffffff1673ffffffffffffffffffffffffffffffffffffffff16815260200190815260200160002060008373ffffffffffffffffffffffffffffffffffffffff1673ffffffffffffffffffffffffffffffffffffffff16815260200190815260200160002060009054906101000a900460ff16905092915050565b610e8161106d565b73ffffffffffffffffffffffffffffffffffffffff16610e9f610c5d565b73ffffffffffffffffffffffffffffffffffffffff1614610ef5576040517f08c379a0000000000000000000000000000000000000000000000000000000008152600401610eec90612fbc565b60405180910390fd5b600073ffffffffffffffffffffffffffffffffffffffff168173ffffffffffffffffffffffffffffffffffffffff161415610f65576040517f08c379a0000000000000000000000000000000000000000000000000000000008152600401610f5c90612e5c565b60405180910390fd5b610f6e81611494565b50565b6001816000016000828254019250508190555050565b60007f780e9d63000000000000000000000000000000000000000000000000000000007bffffffffffffffffffffffffffffffffffffffffffffffffffffffff1916827bffffffffffffffffffffffffffffffffffffffffffffffffffffffff19161480610ffa5750610ff982611875565b5b9050919050565b60008073ffffffffffffffffffffffffffffffffffffffff166002600084815260200190815260200160002060009054906101000a900473ffffffffffffffffffffffffffffffffffffffff1673ffffffffffffffffffffffffffffffffffffffff1614159050919050565b600033905090565b816004600083815260200190815260200160002060006101000a81548173ffffffffffffffffffffffffffffffffffffffff021916908373ffffffffffffffffffffffffffffffffffffffff160217905550808273ffffffffffffffffffffffffffffffffffffffff166110e883610939565b73ffffffffffffffffffffffffffffffffffffffff167f8c5be1e5ebec7d5bd14f71427d1e84f3dd0314c0f7b2291e5b200ac8c7c3b92560405160405180910390a45050565b600061113982611001565b611178576040517f08c379a000000000000000000000000000000000000000000000000000000000815260040161116f90612edc565b60405180910390fd5b600061118383610939565b90508073ffffffffffffffffffffffffffffffffffffffff168473ffffffffffffffffffffffffffffffffffffffff1614806111f257508373ffffffffffffffffffffffffffffffffffffffff166111da8461053d565b73ffffffffffffffffffffffffffffffffffffffff16145b8061120357506112028185610de5565b5b91505092915050565b8273ffffffffffffffffffffffffffffffffffffffff1661122c82610939565b73ffffffffffffffffffffffffffffffffffffffff1614611282576040517f08c379a000000000000000000000000000000000000000000000000000000000815260040161127990612fdc565b60405180910390fd5b600073ffffffffffffffffffffffffffffffffffffffff168273ffffffffffffffffffffffffffffffffffffffff1614156112f2576040517f08c379a00000000000000000000000000000000000000000000000000000000081526004016112e990612e9c565b60405180910390fd5b6112fd838383611957565b611308600082611075565b6001600360008573ffffffffffffffffffffffffffffffffffffffff1673ffffffffffffffffffffffffffffffffffffffff16815260200190815260200160002060008282546113589190613208565b925050819055506001600360008473ffffffffffffffffffffffffffffffffffffffff1673ffffffffffffffffffffffffffffffffffffffff16815260200190815260200160002060008282546113af9190613181565b92505081905550816002600083815260200190815260200160002060006101000a81548173ffffffffffffffffffffffffffffffffffffffff021916908373ffffffffffffffffffffffffffffffffffffffff160217905550808273ffffffffffffffffffffffffffffffffffffffff168473ffffffffffffffffffffffffffffffffffffffff167fddf252ad1be2c89b69c2b068fc378daa952ba7f163c4a11628f55a4df523b3ef60405160405180910390a4505050565b600081600001549050919050565b611490828260405180602001604052806000815250611967565b5050565b6000600b60009054906101000a900473ffffffffffffffffffffffffffffffffffffffff16905081600b60006101000a81548173ffffffffffffffffffffffffffffffffffffffff021916908373ffffffffffffffffffffffffffffffffffffffff1602179055508173ffffffffffffffffffffffffffffffffffffffff168173ffffffffffffffffffffffffffffffffffffffff167f8be0079c531659141344cd1fd0a4f28419497f9722a3daafe3b4186f6b6457e060405160405180910390a35050565b8173ffffffffffffffffffffffffffffffffffffffff168373ffffffffffffffffffffffffffffffffffffffff1614156115c9576040517f08c379a00000000000000000000000000000000000000000000000000000000081526004016115c090612ebc565b60405180910390fd5b80600560008573ffffffffffffffffffffffffffffffffffffffff1673ffffffffffffffffffffffffffffffffffffffff16815260200190815260200160002060008473ffffffffffffffffffffffffffffffffffffffff1673ffffffffffffffffffffffffffffffffffffffff16815260200190815260200160002060006101000a81548160ff0219169083151502179055508173ffffffffffffffffffffffffffffffffffffffff168373ffffffffffffffffffffffffffffffffffffffff167f17307eab39ab6107e8899845ad3d59bd9653f200f220920489ca2b5937696c31836040516116ba9190612ddf565b60405180910390a3505050565b6116d284848461120c565b6116de848484846119c2565b61171d576040517f08c379a000000000000000000000000000000000000000000000000000000000815260040161171490612e3c565b60405180910390fd5b50505050565b606061172e82611001565b61176d576040517f08c379a000000000000000000000000000000000000000000000000000000000815260040161176490612f7c565b60405180910390fd5b6000600a6000848152602001908152602001600020805461178d906132f2565b80601f01602080910402602001604051908101604052809291908181526020018280546117b9906132f2565b80156118065780601f106117db57610100808354040283529160200191611806565b820191906000526020600020905b8154815290600101906020018083116117e957829003601f168201915b505050505090506000611817611b59565b905060008151141561182d578192505050611870565b60008251111561186257808260405160200161184a929190612d09565b60405160208183030381529060405292505050611870565b61186b84611beb565b925050505b919050565b60007f80ac58cd000000000000000000000000000000000000000000000000000000007bffffffffffffffffffffffffffffffffffffffffffffffffffffffff1916827bffffffffffffffffffffffffffffffffffffffffffffffffffffffff1916148061194057507f5b5e139f000000000000000000000000000000000000000000000000000000007bffffffffffffffffffffffffffffffffffffffffffffffffffffffff1916827bffffffffffffffffffffffffffffffffffffffffffffffffffffffff1916145b80611950575061194f82611c92565b5b9050919050565b611962838383611cfc565b505050565b6119718383611e10565b61197e60008484846119c2565b6119bd576040517f08c379a00000000000000000000000000000000000000000000000000000000081526004016119b490612e3c565b60405180910390fd5b505050565b60006119e38473ffffffffffffffffffffffffffffffffffffffff16611fde565b15611b4c578373ffffffffffffffffffffffffffffffffffffffff1663150b7a02611a0c61106d565b8786866040518563ffffffff1660e01b8152600401611a2e9493929190612d6a565b602060405180830381600087803b158015611a4857600080fd5b505af1925050508015611a7957506040513d601f19601f82011682018060405250810190611a7691906128c7565b60015b611afc573d8060008114611aa9576040519150601f19603f3d011682016040523d82523d6000602084013e611aae565b606091505b50600081511415611af4576040517f08c379a0000000000000000000000000000000000000000000000000000000008152600401611aeb90612e3c565b60405180910390fd5b805181602001fd5b63150b7a0260e01b7bffffffffffffffffffffffffffffffffffffffffffffffffffffffff1916817bffffffffffffffffffffffffffffffffffffffffffffffffffffffff191614915050611b51565b600190505b949350505050565b6060600e8054611b68906132f2565b80601f0160208091040260200160405190810160405280929190818152602001828054611b94906132f2565b8015611be15780601f10611bb657610100808354040283529160200191611be1565b820191906000526020600020905b815481529060010190602001808311611bc457829003601f168201915b5050505050905090565b6060611bf682611001565b611c35576040517f08c379a0000000000000000000000000000000000000000000000000000000008152600401611c2c90612ffc565b60405180910390fd5b6000611c3f611b59565b90506000815111611c5f5760405180602001604052806000815250611c8a565b80611c6984611ff1565b604051602001611c7a929190612d09565b6040516020818303038152906040525b915050919050565b60007f01ffc9a7000000000000000000000000000000000000000000000000000000007bffffffffffffffffffffffffffffffffffffffffffffffffffffffff1916827bffffffffffffffffffffffffffffffffffffffffffffffffffffffff1916149050919050565b611d0783838361219e565b600073ffffffffffffffffffffffffffffffffffffffff168373ffffffffffffffffffffffffffffffffffffffff161415611d4a57611d45816121a3565b611d89565b8173ffffffffffffffffffffffffffffffffffffffff168373ffffffffffffffffffffffffffffffffffffffff1614611d8857611d8783826121ec565b5b5b600073ffffffffffffffffffffffffffffffffffffffff168273ffffffffffffffffffffffffffffffffffffffff161415611dcc57611dc781612359565b611e0b565b8273ffffffffffffffffffffffffffffffffffffffff168273ffffffffffffffffffffffffffffffffffffffff1614611e0a57611e09828261249c565b5b5b505050565b600073ffffffffffffffffffffffffffffffffffffffff168273ffffffffffffffffffffffffffffffffffffffff161415611e80576040517f08c379a0000000000000000000000000000000000000000000000000000000008152600401611e7790612f5c565b60405180910390fd5b611e8981611001565b15611ec9576040517f08c379a0000000000000000000000000000000000000000000000000000000008152600401611ec090612e7c565b60405180910390fd5b611ed560008383611957565b6001600360008473ffffffffffffffffffffffffffffffffffffffff1673ffffffffffffffffffffffffffffffffffffffff1681526020019081526020016000206000828254611f259190613181565b92505081905550816002600083815260200190815260200160002060006101000a81548173ffffffffffffffffffffffffffffffffffffffff021916908373ffffffffffffffffffffffffffffffffffffffff160217905550808273ffffffffffffffffffffffffffffffffffffffff16600073ffffffffffffffffffffffffffffffffffffffff167fddf252ad1be2c89b69c2b068fc378daa952ba7f163c4a11628f55a4df523b3ef60405160405180910390a45050565b600080823b905060008111915050919050565b60606000821415612039576040518060400160405280600181526020017f30000000000000000000000000000000000000000000000000000000000000008152509050612199565b600082905060005b6000821461206b57808061205490613355565b915050600a8261206491906131d7565b9150612041565b60008167ffffffffffffffff8111156120ad577f4e487b7100000000000000000000000000000000000000000000000000000000600052604160045260246000fd5b6040519080825280601f01601f1916602001820160405280156120df5781602001600182028036833780820191505090505b5090505b60008514612192576001826120f89190613208565b9150600a85612107919061339e565b60306121139190613181565b60f81b81838151811061214f577f4e487b7100000000000000000000000000000000000000000000000000000000600052603260045260246000fd5b60200101907effffffffffffffffffffffffffffffffffffffffffffffffffffffffffffff1916908160001a905350600a8561218b91906131d7565b94506120e3565b8093505050505b919050565b505050565b6008805490506009600083815260200190815260200160002081905550600881908060018154018082558091505060019003906000526020600020016000909190919091505550565b600060016121f984610b1d565b6122039190613208565b90506000600760008481526020019081526020016000205490508181146122e8576000600660008673ffffffffffffffffffffffffffffffffffffffff1673ffffffffffffffffffffffffffffffffffffffff168152602001908152602001600020600084815260200190815260200160002054905080600660008773ffffffffffffffffffffffffffffffffffffffff1673ffffffffffffffffffffffffffffffffffffffff168152602001908152602001600020600084815260200190815260200160002081905550816007600083815260200190815260200160002081905550505b6007600084815260200190815260200160002060009055600660008573ffffffffffffffffffffffffffffffffffffffff1673ffffffffffffffffffffffffffffffffffffffff16815260200190815260200160002060008381526020019081526020016000206000905550505050565b6000600160088054905061236d9190613208565b90506000600960008481526020019081526020016000205490506000600883815481106123c3577f4e487b7100000000000000000000000000000000000000000000000000000000600052603260045260246000fd5b90600052602060002001549050806008838154811061240b577f4e487b7100000000000000000000000000000000000000000000000000000000600052603260045260246000fd5b906000526020600020018190555081600960008381526020019081526020016000208190555060096000858152602001908152602001600020600090556008805480612480577f4e487b7100000000000000000000000000000000000000000000000000000000600052603160045260246000fd5b6001900381819060005260206000200160009055905550505050565b60006124a783610b1d565b905081600660008573ffffffffffffffffffffffffffffffffffffffff1673ffffffffffffffffffffffffffffffffffffffff168152602001908152602001600020600083815260200190815260200160002081905550806007600084815260200190815260200160002081905550505050565b828054612527906132f2565b90600052602060002090601f0160209004810192826125495760008555612590565b82601f1061256257805160ff1916838001178555612590565b82800160010185558215612590579182015b8281111561258f578251825591602001919060010190612574565b5b50905061259d91906125a1565b5090565b5b808211156125ba5760008160009055506001016125a2565b5090565b60006125d16125cc846130dc565b6130b7565b9050828152602081018484840111156125e957600080fd5b6125f48482856132b0565b509392505050565b600061260f61260a8461310d565b6130b7565b90508281526020810184848401111561262757600080fd5b6126328482856132b0565b509392505050565b60008135905061264981613a59565b92915050565b60008135905061265e81613a70565b92915050565b60008135905061267381613a87565b92915050565b60008151905061268881613a87565b92915050565b600082601f83011261269f57600080fd5b81356126af8482602086016125be565b91505092915050565b600082601f8301126126c957600080fd5b81356126d98482602086016125fc565b91505092915050565b6000813590506126f181613a9e565b92915050565b60006020828403121561270957600080fd5b60006127178482850161263a565b91505092915050565b6000806040838503121561273357600080fd5b60006127418582860161263a565b92505060206127528582860161263a565b9150509250929050565b60008060006060848603121561277157600080fd5b600061277f8682870161263a565b93505060206127908682870161263a565b92505060406127a1868287016126e2565b9150509250925092565b600080600080608085870312156127c157600080fd5b60006127cf8782880161263a565b94505060206127e08782880161263a565b93505060406127f1878288016126e2565b925050606085013567ffffffffffffffff81111561280e57600080fd5b61281a8782880161268e565b91505092959194509250565b6000806040838503121561283957600080fd5b60006128478582860161263a565b92505060206128588582860161264f565b9150509250929050565b6000806040838503121561287557600080fd5b60006128838582860161263a565b9250506020612894858286016126e2565b9150509250929050565b6000602082840312156128b057600080fd5b60006128be84828501612664565b91505092915050565b6000602082840312156128d957600080fd5b60006128e784828501612679565b91505092915050565b60006020828403121561290257600080fd5b600082013567ffffffffffffffff81111561291c57600080fd5b612928848285016126b8565b91505092915050565b60006020828403121561294357600080fd5b6000612951848285016126e2565b91505092915050565b6129638161323c565b82525050565b6129728161324e565b82525050565b60006129838261313e565b61298d8185613154565b935061299d8185602086016132bf565b6129a68161348b565b840191505092915050565b60006129bc82613149565b6129c68185613165565b93506129d68185602086016132bf565b6129df8161348b565b840191505092915050565b60006129f582613149565b6129ff8185613176565b9350612a0f8185602086016132bf565b80840191505092915050565b6000612a28602b83613165565b9150612a338261349c565b604082019050919050565b6000612a4b603283613165565b9150612a56826134eb565b604082019050919050565b6000612a6e602683613165565b9150612a798261353a565b604082019050919050565b6000612a91601c83613165565b9150612a9c82613589565b602082019050919050565b6000612ab4602483613165565b9150612abf826135b2565b604082019050919050565b6000612ad7601983613165565b9150612ae282613601565b602082019050919050565b6000612afa602c83613165565b9150612b058261362a565b604082019050919050565b6000612b1d603883613165565b9150612b2882613679565b604082019050919050565b6000612b40602a83613165565b9150612b4b826136c8565b604082019050919050565b6000612b63602983613165565b9150612b6e82613717565b604082019050919050565b6000612b86602083613165565b9150612b9182613766565b602082019050919050565b6000612ba9603183613165565b9150612bb48261378f565b604082019050919050565b6000612bcc602c83613165565b9150612bd7826137de565b604082019050919050565b6000612bef600583613176565b9150612bfa8261382d565b600582019050919050565b6000612c12602083613165565b9150612c1d82613856565b602082019050919050565b6000612c35602983613165565b9150612c408261387f565b604082019050919050565b6000612c58602f83613165565b9150612c63826138ce565b604082019050919050565b6000612c7b602183613165565b9150612c868261391d565b604082019050919050565b6000612c9e603183613165565b9150612ca98261396c565b604082019050919050565b6000612cc1602c83613165565b9150612ccc826139bb565b604082019050919050565b6000612ce4602783613165565b9150612cef82613a0a565b604082019050919050565b612d03816132a6565b82525050565b6000612d1582856129ea565b9150612d2182846129ea565b91508190509392505050565b6000612d3982846129ea565b9150612d4482612be2565b915081905092915050565b6000602082019050612d64600083018461295a565b92915050565b6000608082019050612d7f600083018761295a565b612d8c602083018661295a565b612d996040830185612cfa565b8181036060830152612dab8184612978565b905095945050505050565b6000604082019050612dcb600083018561295a565b612dd86020830184612cfa565b9392505050565b6000602082019050612df46000830184612969565b92915050565b60006020820190508181036000830152612e1481846129b1565b905092915050565b60006020820190508181036000830152612e3581612a1b565b9050919050565b60006020820190508181036000830152612e5581612a3e565b9050919050565b60006020820190508181036000830152612e7581612a61565b9050919050565b60006020820190508181036000830152612e9581612a84565b9050919050565b60006020820190508181036000830152612eb581612aa7565b9050919050565b60006020820190508181036000830152612ed581612aca565b9050919050565b60006020820190508181036000830152612ef581612aed565b9050919050565b60006020820190508181036000830152612f1581612b10565b9050919050565b60006020820190508181036000830152612f3581612b33565b9050919050565b60006020820190508181036000830152612f5581612b56565b9050919050565b60006020820190508181036000830152612f7581612b79565b9050919050565b60006020820190508181036000830152612f9581612b9c565b9050919050565b60006020820190508181036000830152612fb581612bbf565b9050919050565b60006020820190508181036000830152612fd581612c05565b9050919050565b60006020820190508181036000830152612ff581612c28565b9050919050565b6000602082019050818103600083015261301581612c4b565b9050919050565b6000602082019050818103600083015261303581612c6e565b9050919050565b6000602082019050818103600083015261305581612c91565b9050919050565b6000602082019050818103600083015261307581612cb4565b9050919050565b6000602082019050818103600083015261309581612cd7565b9050919050565b60006020820190506130b16000830184612cfa565b92915050565b60006130c16130d2565b90506130cd8282613324565b919050565b6000604051905090565b600067ffffffffffffffff8211156130f7576130f661345c565b5b6131008261348b565b9050602081019050919050565b600067ffffffffffffffff8211156131285761312761345c565b5b6131318261348b565b9050602081019050919050565b600081519050919050565b600081519050919050565b600082825260208201905092915050565b600082825260208201905092915050565b600081905092915050565b600061318c826132a6565b9150613197836132a6565b9250827fffffffffffffffffffffffffffffffffffffffffffffffffffffffffffffffff038211156131cc576131cb6133cf565b5b828201905092915050565b60006131e2826132a6565b91506131ed836132a6565b9250826131fd576131fc6133fe565b5b828204905092915050565b6000613213826132a6565b915061321e836132a6565b925082821015613231576132306133cf565b5b828203905092915050565b600061324782613286565b9050919050565b60008115159050919050565b60007fffffffff0000000000000000000000000000000000000000000000000000000082169050919050565b600073ffffffffffffffffffffffffffffffffffffffff82169050919050565b6000819050919050565b82818337600083830152505050565b60005b838110156132dd5780820151818401526020810190506132c2565b838111156132ec576000848401525b50505050565b6000600282049050600182168061330a57607f821691505b6020821081141561331e5761331d61342d565b5b50919050565b61332d8261348b565b810181811067ffffffffffffffff8211171561334c5761334b61345c565b5b80604052505050565b6000613360826132a6565b91507fffffffffffffffffffffffffffffffffffffffffffffffffffffffffffffffff821415613393576133926133cf565b5b600182019050919050565b60006133a9826132a6565b91506133b4836132a6565b9250826133c4576133c36133fe565b5b828206905092915050565b7f4e487b7100000000000000000000000000000000000000000000000000000000600052601160045260246000fd5b7f4e487b7100000000000000000000000000000000000000000000000000000000600052601260045260246000fd5b7f4e487b7100000000000000000000000000000000000000000000000000000000600052602260045260246000fd5b7f4e487b7100000000000000000000000000000000000000000000000000000000600052604160045260246000fd5b6000601f19601f8301169050919050565b7f455243373231456e756d657261626c653a206f776e657220696e646578206f7560008201527f74206f6620626f756e6473000000000000000000000000000000000000000000602082015250565b7f4552433732313a207472616e7366657220746f206e6f6e20455243373231526560008201527f63656976657220696d706c656d656e7465720000000000000000000000000000602082015250565b7f4f776e61626c653a206e6577206f776e657220697320746865207a65726f206160008201527f6464726573730000000000000000000000000000000000000000000000000000602082015250565b7f4552433732313a20746f6b656e20616c7265616479206d696e74656400000000600082015250565b7f4552433732313a207472616e7366657220746f20746865207a65726f2061646460008201527f7265737300000000000000000000000000000000000000000000000000000000602082015250565b7f4552433732313a20617070726f766520746f2063616c6c657200000000000000600082015250565b7f4552433732313a206f70657261746f7220717565727920666f72206e6f6e657860008201527f697374656e7420746f6b656e0000000000000000000000000000000000000000602082015250565b7f4552433732313a20617070726f76652063616c6c6572206973206e6f74206f7760008201527f6e6572206e6f7220617070726f76656420666f7220616c6c0000000000000000602082015250565b7f4552433732313a2062616c616e636520717565727920666f7220746865207a6560008201527f726f206164647265737300000000000000000000000000000000000000000000602082015250565b7f4552433732313a206f776e657220717565727920666f72206e6f6e657869737460008201527f656e7420746f6b656e0000000000000000000000000000000000000000000000602082015250565b7f4552433732313a206d696e7420746f20746865207a65726f2061646472657373600082015250565b7f45524337323155524953746f726167653a2055524920717565727920666f722060008201527f6e6f6e6578697374656e7420746f6b656e000000000000000000000000000000602082015250565b7f4552433732313a20617070726f76656420717565727920666f72206e6f6e657860008201527f697374656e7420746f6b656e0000000000000000000000000000000000000000602082015250565b7f2e6a736f6e000000000000000000000000000000000000000000000000000000600082015250565b7f4f776e61626c653a2063616c6c6572206973206e6f7420746865206f776e6572600082015250565b7f4552433732313a207472616e73666572206f6620746f6b656e2074686174206960008201527f73206e6f74206f776e0000000000000000000000000000000000000000000000602082015250565b7f4552433732314d657461646174613a2055524920717565727920666f72206e6f60008201527f6e6578697374656e7420746f6b656e0000000000000000000000000000000000602082015250565b7f4552433732313a20617070726f76616c20746f2063757272656e74206f776e6560008201527f7200000000000000000000000000000000000000000000000000000000000000602082015250565b7f4552433732313a207472616e736665722063616c6c6572206973206e6f74206f60008201527f776e6572206e6f7220617070726f766564000000000000000000000000000000602082015250565b7f455243373231456e756d657261626c653a20676c6f62616c20696e646578206f60008201527f7574206f6620626f756e64730000000000000000000000000000000000000000602082015250565b7f546f74616c20737570706c79206f6620746f6b656e732068617665206265656e60008201527f206d696e74656400000000000000000000000000000000000000000000000000602082015250565b613a628161323c565b8114613a6d57600080fd5b50565b613a798161324e565b8114613a8457600080fd5b50565b613a908161325a565b8114613a9b57600080fd5b50565b613aa7816132a6565b8114613ab257600080fd5b5056fea26469706673582212200b57d950579b6aaf36b9a521470b15b21a3018898b047889bb4c1b6d207515e464736f6c63430008020033",
  "linkReferences": {},
  "deployedLinkReferences": {}
}